{
  "fileName": "Abc-Token.sol",
  "contractName": "AbcToken",
  "source": "pragma solidity >=0.5.0 <0.7.0;\nimport \"./Initializable.sol\";\n// Ownable contract from open zepplin libraray\n\ncontract Ownable is Initializable{\n    address private _owner;\n\n    event OwnershipTransferred(\n        address indexed previousOwner,\n        address indexed newOwner\n    );\n\n    /**\n     * @dev Initializes the contract setting the deployer as the initial owner.\n     */\n    function initialize() public virtual initializer {\n        _owner = msg.sender;\n        emit OwnershipTransferred(address(0), _owner);\n    }\n\n    /**\n     * @dev Returns the address of the current owner.\n     */\n    function owner() public view returns (address) {\n        return _owner;\n    }\n\n    /**\n     * @dev Throws if called by any account other than the owner.\n     */\n    modifier onlyOwner() {\n        require(isOwner(), \"Ownable: caller is not the owner\");\n        _;\n    }\n\n    /**\n     * @dev Returns true if the caller is the current owner.\n     */\n    function isOwner() public view returns (bool) {\n        return msg.sender == _owner;\n    }\n\n    /**\n     * @dev Leaves the contract without owner. It will not be possible to call\n     * `onlyOwner` functions anymore. Can only be called by the current owner.\n     *\n     * > Note: Renouncing ownership will leave the contract without an owner,\n     * thereby removing any functionality that is only available to the owner.\n     */\n\n    /**\n     * @dev Transfers ownership of the contract to a new account (`newOwner`).\n     * Can only be called by the current owner.\n     */\n    function transferOwnership(address _newOwner) public onlyOwner {\n        _transferOwnership(_newOwner);\n    }\n\n    /**\n     * @dev Transfers ownership of the contract to a new account (`newOwner`).\n     */\n    function _transferOwnership(address _newOwner) internal {\n        require(\n            _newOwner != address(0),\n            \"Ownable: new owner is the zero address\"\n        );\n        emit OwnershipTransferred(_owner, _newOwner);\n        _owner = _newOwner;\n    }\n}\n\n\n// safemath library for addition and subtraction\n\nlibrary SafeMath {\n    function safeAdd(uint a, uint b) internal pure returns (uint c) {\n        c = a + b;\n        require(c >= a);\n    }\n    function safeSub(uint a, uint b) internal pure returns (uint c) {\n        require(b <= a);\n        c = a - b;\n    }\n    function safeMul(uint a, uint b) internal pure returns (uint c) {\n        c = a * b;\n        require(a == 0 || c / a == b);\n    }\n    function safeDiv(uint a, uint b) internal pure returns (uint c) {\n        require(b > 0);\n        c = a / b;\n    }\n}\n\n\n// erc20 interface\n\ninterface ERC20{\n    \n    function totalSupply() external view returns (uint256);\n    function balanceOf(address _tokenOwner) external view returns (uint256);\n    function allowance(address _tokenOwner, address _spender) external view returns (uint256);\n    function transfer(address _to, uint256 _tokens) external returns (bool);\n    function approve(address _spender, uint256 _tokens)  external returns (bool);\n    function transferFrom(address _from, address _to, uint256 _tokens) external returns (bool);\n    \n    event Approval(address indexed tokenOwner, address indexed spender, uint tokens);\n    event Transfer(address indexed from, address indexed to, uint tokens);\n    \n}\n\n\n// actual contract\n\ncontract AbcToken is Ownable, ERC20{\n    \n    using SafeMath for uint256;\n\n    string  public name;\n    string  public symbol;\n    uint256 public _totalSupply;\n    uint256 public decimal;\n    \n    mapping(address => uint256) _balances;\n    mapping(address => mapping (address => uint256)) _allowances;\n    \n    event Approval(address indexed tokenOwner, address indexed spender, uint tokens);\n    event Transfer(address indexed from, address indexed to, uint tokens);\n    \n    function initialize() initializer override public {\n        name = \"ABC\";\n        symbol = \"ABC\";\n        decimal = 6;\n        _totalSupply = 1000000 * 10 ** decimal;\n        _balances[msg.sender] = _totalSupply;\n    }\n    \n    \n    function totalSupply() external view  override returns (uint256) {\n        return _totalSupply;\n    }\n    \n    function balanceOf(address _tokenOwner) external view override returns (uint256) {\n        return _balances[_tokenOwner];\n    }\n    \n    function transfer(address _to, uint256 _tokens) external override returns (bool) {\n        _transfer(msg.sender, _to, _tokens);\n        return true;\n    }\n    \n    function _transfer(address _sender, address _recipient, uint256 _amount) internal {\n        require(_sender != address(0), \"ERC20: transfer from the zero address\");\n        require(_recipient != address(0), \"ERC20: transfer to the zero address\");\n\n        _balances[_sender] = _balances[_sender].safeSub(_amount);\n        _balances[_recipient] = _balances[_recipient].safeAdd(_amount);\n        emit Transfer(_sender, _recipient, _amount);\n    }\n    \n    function allowance(address _tokenOwner, address _spender) external view override returns (uint256) {\n        return _allowances[_tokenOwner][_spender];\n    }\n    \n    function approve(address _spender, uint256 _tokens) external override returns (bool) {\n        _approve(msg.sender, _spender, _tokens);\n        return true;\n    }\n    \n    function _approve(address _owner, address _spender, uint256 _value) internal {\n        require(_owner != address(0), \"ERC20: approve from the zero address\");\n        require(_spender != address(0), \"ERC20: approve to the zero address\");\n\n        _allowances[_owner][_spender] = _value;\n        emit Approval(_owner, _spender, _value);\n    }\n    \n    \n    function transferFrom(address _from, address _to, uint256 _tokens) external override returns (bool) {\n        _transfer(_from, _to, _tokens);\n        _approve(_from, msg.sender, _allowances[_from][msg.sender].safeSub(_tokens));\n        return true;\n    }\n    // don't accept eth\n    // taken from ethplode token contract\n    receive () external payable {\n        revert();\n    }\n}",
  "sourcePath": "contracts/Abc-Token.sol",
  "abi": [
    {
      "anonymous": false,
      "inputs": [
        {
          "indexed": true,
          "internalType": "address",
          "name": "tokenOwner",
          "type": "address"
        },
        {
          "indexed": true,
          "internalType": "address",
          "name": "spender",
          "type": "address"
        },
        {
          "indexed": false,
          "internalType": "uint256",
          "name": "tokens",
          "type": "uint256"
        }
      ],
      "name": "Approval",
      "type": "event"
    },
    {
      "anonymous": false,
      "inputs": [
        {
          "indexed": true,
          "internalType": "address",
          "name": "previousOwner",
          "type": "address"
        },
        {
          "indexed": true,
          "internalType": "address",
          "name": "newOwner",
          "type": "address"
        }
      ],
      "name": "OwnershipTransferred",
      "type": "event"
    },
    {
      "anonymous": false,
      "inputs": [
        {
          "indexed": true,
          "internalType": "address",
          "name": "from",
          "type": "address"
        },
        {
          "indexed": true,
          "internalType": "address",
          "name": "to",
          "type": "address"
        },
        {
          "indexed": false,
          "internalType": "uint256",
          "name": "tokens",
          "type": "uint256"
        }
      ],
      "name": "Transfer",
      "type": "event"
    },
    {
      "inputs": [],
      "name": "_totalSupply",
      "outputs": [
        {
          "internalType": "uint256",
          "name": "",
          "type": "uint256"
        }
      ],
      "stateMutability": "view",
      "type": "function"
    },
    {
      "inputs": [
        {
          "internalType": "address",
          "name": "_tokenOwner",
          "type": "address"
        },
        {
          "internalType": "address",
          "name": "_spender",
          "type": "address"
        }
      ],
      "name": "allowance",
      "outputs": [
        {
          "internalType": "uint256",
          "name": "",
          "type": "uint256"
        }
      ],
      "stateMutability": "view",
      "type": "function"
    },
    {
      "inputs": [
        {
          "internalType": "address",
          "name": "_spender",
          "type": "address"
        },
        {
          "internalType": "uint256",
          "name": "_tokens",
          "type": "uint256"
        }
      ],
      "name": "approve",
      "outputs": [
        {
          "internalType": "bool",
          "name": "",
          "type": "bool"
        }
      ],
      "stateMutability": "nonpayable",
      "type": "function"
    },
    {
      "inputs": [
        {
          "internalType": "address",
          "name": "_tokenOwner",
          "type": "address"
        }
      ],
      "name": "balanceOf",
      "outputs": [
        {
          "internalType": "uint256",
          "name": "",
          "type": "uint256"
        }
      ],
      "stateMutability": "view",
      "type": "function"
    },
    {
      "inputs": [],
      "name": "decimal",
      "outputs": [
        {
          "internalType": "uint256",
          "name": "",
          "type": "uint256"
        }
      ],
      "stateMutability": "view",
      "type": "function"
    },
    {
      "inputs": [],
      "name": "initialize",
      "outputs": [],
      "stateMutability": "nonpayable",
      "type": "function"
    },
    {
      "inputs": [],
      "name": "isOwner",
      "outputs": [
        {
          "internalType": "bool",
          "name": "",
          "type": "bool"
        }
      ],
      "stateMutability": "view",
      "type": "function"
    },
    {
      "inputs": [],
      "name": "name",
      "outputs": [
        {
          "internalType": "string",
          "name": "",
          "type": "string"
        }
      ],
      "stateMutability": "view",
      "type": "function"
    },
    {
      "inputs": [],
      "name": "owner",
      "outputs": [
        {
          "internalType": "address",
          "name": "",
          "type": "address"
        }
      ],
      "stateMutability": "view",
      "type": "function"
    },
    {
      "inputs": [],
      "name": "symbol",
      "outputs": [
        {
          "internalType": "string",
          "name": "",
          "type": "string"
        }
      ],
      "stateMutability": "view",
      "type": "function"
    },
    {
      "inputs": [],
      "name": "totalSupply",
      "outputs": [
        {
          "internalType": "uint256",
          "name": "",
          "type": "uint256"
        }
      ],
      "stateMutability": "view",
      "type": "function"
    },
    {
      "inputs": [
        {
          "internalType": "address",
          "name": "_to",
          "type": "address"
        },
        {
          "internalType": "uint256",
          "name": "_tokens",
          "type": "uint256"
        }
      ],
      "name": "transfer",
      "outputs": [
        {
          "internalType": "bool",
          "name": "",
          "type": "bool"
        }
      ],
      "stateMutability": "nonpayable",
      "type": "function"
    },
    {
      "inputs": [
        {
          "internalType": "address",
          "name": "_from",
          "type": "address"
        },
        {
          "internalType": "address",
          "name": "_to",
          "type": "address"
        },
        {
          "internalType": "uint256",
          "name": "_tokens",
          "type": "uint256"
        }
      ],
      "name": "transferFrom",
      "outputs": [
        {
          "internalType": "bool",
          "name": "",
          "type": "bool"
        }
      ],
      "stateMutability": "nonpayable",
      "type": "function"
    },
    {
      "inputs": [
        {
          "internalType": "address",
          "name": "_newOwner",
          "type": "address"
        }
      ],
      "name": "transferOwnership",
      "outputs": [],
      "stateMutability": "nonpayable",
      "type": "function"
    },
    {
      "stateMutability": "payable",
      "type": "receive"
    }
  ],
  "bytecode": "0x608060405234801561001057600080fd5b506113c6806100206000396000f3fe6080604052600436106100e15760003560e01c80638129fc1c1161007f57806395d89b411161005957806395d89b4114610409578063a9059cbb14610499578063dd62ed3e1461050c578063f2fde38b14610591576100eb565b80638129fc1c1461036c5780638da5cb5b146103835780638f32d59b146103da576100eb565b806323b872dd116100bb57806323b872dd1461021e5780633eaaf86b146102b157806370a08231146102dc57806376809ce314610341576100eb565b806306fdde03146100f0578063095ea7b31461018057806318160ddd146101f3576100eb565b366100eb57600080fd5b600080fd5b3480156100fc57600080fd5b506101056105e2565b6040518080602001828103825283818151815260200191508051906020019080838360005b8381101561014557808201518184015260208101905061012a565b50505050905090810190601f1680156101725780820380516001836020036101000a031916815260200191505b509250505060405180910390f35b34801561018c57600080fd5b506101d9600480360360408110156101a357600080fd5b81019080803573ffffffffffffffffffffffffffffffffffffffff16906020019092919080359060200190929190505050610680565b604051808215151515815260200191505060405180910390f35b3480156101ff57600080fd5b50610208610697565b6040518082815260200191505060405180910390f35b34801561022a57600080fd5b506102976004803603606081101561024157600080fd5b81019080803573ffffffffffffffffffffffffffffffffffffffff169060200190929190803573ffffffffffffffffffffffffffffffffffffffff169060200190929190803590602001909291905050506106a1565b604051808215151515815260200191505060405180910390f35b3480156102bd57600080fd5b506102c6610752565b6040518082815260200191505060405180910390f35b3480156102e857600080fd5b5061032b600480360360208110156102ff57600080fd5b81019080803573ffffffffffffffffffffffffffffffffffffffff169060200190929190505050610758565b6040518082815260200191505060405180910390f35b34801561034d57600080fd5b506103566107a1565b6040518082815260200191505060405180910390f35b34801561037857600080fd5b506103816107a7565b005b34801561038f57600080fd5b5061039861099d565b604051808273ffffffffffffffffffffffffffffffffffffffff1673ffffffffffffffffffffffffffffffffffffffff16815260200191505060405180910390f35b3480156103e657600080fd5b506103ef6109c7565b604051808215151515815260200191505060405180910390f35b34801561041557600080fd5b5061041e610a1f565b6040518080602001828103825283818151815260200191508051906020019080838360005b8381101561045e578082015181840152602081019050610443565b50505050905090810190601f16801561048b5780820380516001836020036101000a031916815260200191505b509250505060405180910390f35b3480156104a557600080fd5b506104f2600480360360408110156104bc57600080fd5b81019080803573ffffffffffffffffffffffffffffffffffffffff16906020019092919080359060200190929190505050610abd565b604051808215151515815260200191505060405180910390f35b34801561051857600080fd5b5061057b6004803603604081101561052f57600080fd5b81019080803573ffffffffffffffffffffffffffffffffffffffff169060200190929190803573ffffffffffffffffffffffffffffffffffffffff169060200190929190505050610ad4565b6040518082815260200191505060405180910390f35b34801561059d57600080fd5b506105e0600480360360208110156105b457600080fd5b81019080803573ffffffffffffffffffffffffffffffffffffffff169060200190929190505050610b5b565b005b60348054600181600116156101000203166002900480601f0160208091040260200160405190810160405280929190818152602001828054600181600116156101000203166002900480156106785780601f1061064d57610100808354040283529160200191610678565b820191906000526020600020905b81548152906001019060200180831161065b57829003601f168201915b505050505081565b600061068d338484610be1565b6001905092915050565b6000603654905090565b60006106ae848484610dd8565b610747843361074285603960008a73ffffffffffffffffffffffffffffffffffffffff1673ffffffffffffffffffffffffffffffffffffffff16815260200190815260200160002060003373ffffffffffffffffffffffffffffffffffffffff1673ffffffffffffffffffffffffffffffffffffffff1681526020019081526020016000205461107890919063ffffffff16565b610be1565b600190509392505050565b60365481565b6000603860008373ffffffffffffffffffffffffffffffffffffffff1673ffffffffffffffffffffffffffffffffffffffff168152602001908152602001600020549050919050565b60375481565b600060019054906101000a900460ff16806107c657506107c5611092565b5b806107dd57506000809054906101000a900460ff16155b610832576040517f08c379a000000000000000000000000000000000000000000000000000000000815260040180806020018281038252602e81526020018061131a602e913960400191505060405180910390fd5b60008060019054906101000a900460ff161590508015610882576001600060016101000a81548160ff02191690831515021790555060016000806101000a81548160ff0219169083151502179055505b6040518060400160405280600381526020017f4142430000000000000000000000000000000000000000000000000000000000815250603490805190602001906108cd929190611209565b506040518060400160405280600381526020017f414243000000000000000000000000000000000000000000000000000000000081525060359080519060200190610919929190611209565b506006603781905550603754600a0a620f424002603681905550603654603860003373ffffffffffffffffffffffffffffffffffffffff1673ffffffffffffffffffffffffffffffffffffffff16815260200190815260200160002081905550801561099a5760008060016101000a81548160ff0219169083151502179055505b50565b6000603360009054906101000a900473ffffffffffffffffffffffffffffffffffffffff16905090565b6000603360009054906101000a900473ffffffffffffffffffffffffffffffffffffffff1673ffffffffffffffffffffffffffffffffffffffff163373ffffffffffffffffffffffffffffffffffffffff1614905090565b60358054600181600116156101000203166002900480601f016020809104026020016040519081016040528092919081815260200182805460018160011615610100020316600290048015610ab55780601f10610a8a57610100808354040283529160200191610ab5565b820191906000526020600020905b815481529060010190602001808311610a9857829003601f168201915b505050505081565b6000610aca338484610dd8565b6001905092915050565b6000603960008473ffffffffffffffffffffffffffffffffffffffff1673ffffffffffffffffffffffffffffffffffffffff16815260200190815260200160002060008373ffffffffffffffffffffffffffffffffffffffff1673ffffffffffffffffffffffffffffffffffffffff16815260200190815260200160002054905092915050565b610b636109c7565b610bd5576040517f08c379a00000000000000000000000000000000000000000000000000000000081526004018080602001828103825260208152602001807f4f776e61626c653a2063616c6c6572206973206e6f7420746865206f776e657281525060200191505060405180910390fd5b610bde816110a9565b50565b600073ffffffffffffffffffffffffffffffffffffffff168373ffffffffffffffffffffffffffffffffffffffff161415610c67576040517f08c379a000000000000000000000000000000000000000000000000000000000815260040180806020018281038252602481526020018061136d6024913960400191505060405180910390fd5b600073ffffffffffffffffffffffffffffffffffffffff168273ffffffffffffffffffffffffffffffffffffffff161415610ced576040517f08c379a00000000000000000000000000000000000000000000000000000000081526004018080602001828103825260228152602001806112f86022913960400191505060405180910390fd5b80603960008573ffffffffffffffffffffffffffffffffffffffff1673ffffffffffffffffffffffffffffffffffffffff16815260200190815260200160002060008473ffffffffffffffffffffffffffffffffffffffff1673ffffffffffffffffffffffffffffffffffffffff168152602001908152602001600020819055508173ffffffffffffffffffffffffffffffffffffffff168373ffffffffffffffffffffffffffffffffffffffff167f8c5be1e5ebec7d5bd14f71427d1e84f3dd0314c0f7b2291e5b200ac8c7c3b925836040518082815260200191505060405180910390a3505050565b600073ffffffffffffffffffffffffffffffffffffffff168373ffffffffffffffffffffffffffffffffffffffff161415610e5e576040517f08c379a00000000000000000000000000000000000000000000000000000000081526004018080602001828103825260258152602001806113486025913960400191505060405180910390fd5b600073ffffffffffffffffffffffffffffffffffffffff168273ffffffffffffffffffffffffffffffffffffffff161415610ee4576040517f08c379a00000000000000000000000000000000000000000000000000000000081526004018080602001828103825260238152602001806112af6023913960400191505060405180910390fd5b610f3681603860008673ffffffffffffffffffffffffffffffffffffffff1673ffffffffffffffffffffffffffffffffffffffff1681526020019081526020016000205461107890919063ffffffff16565b603860008573ffffffffffffffffffffffffffffffffffffffff1673ffffffffffffffffffffffffffffffffffffffff16815260200190815260200160002081905550610fcb81603860008573ffffffffffffffffffffffffffffffffffffffff1673ffffffffffffffffffffffffffffffffffffffff168152602001908152602001600020546111ef90919063ffffffff16565b603860008473ffffffffffffffffffffffffffffffffffffffff1673ffffffffffffffffffffffffffffffffffffffff168152602001908152602001600020819055508173ffffffffffffffffffffffffffffffffffffffff168373ffffffffffffffffffffffffffffffffffffffff167fddf252ad1be2c89b69c2b068fc378daa952ba7f163c4a11628f55a4df523b3ef836040518082815260200191505060405180910390a3505050565b60008282111561108757600080fd5b818303905092915050565b6000803090506000813b9050600081149250505090565b600073ffffffffffffffffffffffffffffffffffffffff168173ffffffffffffffffffffffffffffffffffffffff16141561112f576040517f08c379a00000000000000000000000000000000000000000000000000000000081526004018080602001828103825260268152602001806112d26026913960400191505060405180910390fd5b8073ffffffffffffffffffffffffffffffffffffffff16603360009054906101000a900473ffffffffffffffffffffffffffffffffffffffff1673ffffffffffffffffffffffffffffffffffffffff167f8be0079c531659141344cd1fd0a4f28419497f9722a3daafe3b4186f6b6457e060405160405180910390a380603360006101000a81548173ffffffffffffffffffffffffffffffffffffffff021916908373ffffffffffffffffffffffffffffffffffffffff16021790555050565b600081830190508281101561120357600080fd5b92915050565b828054600181600116156101000203166002900490600052602060002090601f016020900481019282601f1061124a57805160ff1916838001178555611278565b82800160010185558215611278579182015b8281111561127757825182559160200191906001019061125c565b5b5090506112859190611289565b5090565b6112ab91905b808211156112a757600081600090555060010161128f565b5090565b9056fe45524332303a207472616e7366657220746f20746865207a65726f20616464726573734f776e61626c653a206e6577206f776e657220697320746865207a65726f206164647265737345524332303a20617070726f766520746f20746865207a65726f2061646472657373436f6e747261637420696e7374616e63652068617320616c7265616479206265656e20696e697469616c697a656445524332303a207472616e736665722066726f6d20746865207a65726f206164647265737345524332303a20617070726f76652066726f6d20746865207a65726f2061646472657373a26469706673582212206c329cb2e293b4cc42334fa63b3aa3adf03c1b56b1c0a63fcb767a98b9a9bb9f64736f6c63430006060033",
  "compiler": {
    "name": "solc",
    "version": "0.6.6+commit.6c089d02.Emscripten.clang",
    "optimizer": {
      "enabled": false,
      "runs": 200
    },
    "evmVersion": "petersburg"
  }
}